:020000040002F8
:1030000048AB002079330200813302008333020091
:10301000853302008733020089330200000000007C
:103020000000000000000000000000008B330200E0
:103030008D330200000000008F3302009133020044
:10304000B537020093330200F13A020093330200D5
:1030500093330200933302000D35020093330200D4
:103060009333020093330200933302009333020040
:103070009333020093330200933302009333020030
:1030800093330200053802009333020093330200A9
:1030900039380200933302004138020093330200B2
:1030A0009333020093330200933302009333020000
:1030B0009333020093330200000000000000000080
:1030C00093330200933302009333020093330200E0
:1030D0009333020093330200933302000000000098
:1030E00000000000000000000000000000000000E0
:1030F00000000000000000000000000000000000D0
:1031000000000000000000000000000000000000BF
:1031100000000000000000000000000000000000AF
:10312000000000000000000000000000000000009F
:10313000000000000000000000000000000000008F
:10314000000000000000000000000000000000007F
:10315000000000000000000000000000000000006F
:10316000000000000000000000000000000000005F
:10317000000000000000000000000000000000004F
:10318000000000000000000000000000000000003F
:10319000000000000000000000000000000000002F
:1031A000000000000000000000000000000000001F
:1031B000000000000000000000000000000000000F
:1031C00000000000000000000000000000000000FF
:1031D00000000000000000000000000000000000EF
:1031E00000000000000000000000000000000000DF
:1031F00000000000000000000000000000000000CF
:10320000DFF80CD000F052F900480047B15C020032
:1032100048AB002030B450E8012F93B2C489234456
:103220008489A34228BF1B1B0489A34202BFBFF3AA
:103230002F8F002007E0C3EA020340E80134002C8E
:10324000E9D14FF001000A6030BC704750E8012F0F
:10325000C2EA024240E801210029F7D1704730B4A8
:1032600050E8022F1FFAA2F3C488A34202BFBFF3A3
:103270002F8F00200DE0C48923448489A34228BFF6
:103280001B1BC2EA034340E80234002CE8D14FF094
:1032900001000A6030BC704750E8022FC2EA2242A7
:1032A00040E802210029F7D17047034653E8022F76
:1032B000D988B2EB324F4FF0000017BF92B241EA0B
:1032C000014142EA014104E05A68B2EB324F08BFC3
:1032D000012043E80212002AE8D1704730B40446C6
:1032E00054E8000F0D4644E80053002BF8D1156058
:1032F00030BC704730B4044654E8000F40EA010582
:1033000044E80053002BF7D1156030BC704730B44F
:10331000044654E8000F00EA010544E80053002B7E
:10332000F7D1156030BC704730B4044654E8000F44
:1033300080EA010544E80053002BF7D1156030BC4A
:10334000704730B4044654E8000F00EB010544E830
:103350000053002BF7D1156030BC704730B40446E1
:1033600054E8000FA0EB010544E80053002BF7D10F
:10337000156030BC7047000006488047064800478B
:10338000FEE7FEE7FEE7FEE7FEE7FEE7FEE7FEE715
:10339000FEE7FEE759380200013202002DE9F05F36
:1033A0000546002092469B468846064681464024B4
:1033B0001BE0284641464746224600F067F8534640
:1033C0005A46C01A914110D311461846224600F0C1
:1033D0004EF82D1A67EB01084F46224601200021C6
:1033E00000F045F817EB00094E41201EA4F101043E
:1033F000DFDC484631462A464346BDE8F09F40EAB6
:1034000001039B0703D009E008C9121F08C0042A62
:10341000FAD203E011F8013B00F8013B521EF9D249
:103420007047D2B201E000F8012B491EFBD2704771
:103430000022F6E710B513460A4604461946FFF780
:10344000F0FF204610BD421C10F8011B0029FBD1E3
:10345000801A704730B504460020034600E05B1C2C
:10346000934203D2E05CCD5C401BF8D030BD202AF3
:1034700004DB203A00FA02F1002070479140C2F1CB
:10348000200320FA03F3194390407047202A04DBFD
:10349000203A21FA02F00021704721FA02F3D040CD
:1034A000C2F120029140084319467047064C074D6F
:1034B00006E0E06840F0010394E807009847103404
:1034C000AC42F6D3FFF7A0FE20880200408802003D
:1034D00030B58C1810F8012B12F00F0301D110F841
:1034E000013B120906D110F8012B03E010F8015B33
:1034F00001F8015B5B1EF9D101E001F8013B521EAE
:10350000FBD1A142E6D3002030BD00002DE9F04FF1
:1035100089B04FF00008002008904FF480700790A9
:103520000126002413E0079803F00EFA48B100BF0B
:1035300081480068304020B1079803F0F7F948EA65
:10354000060876000798001D80B20790641C082CBE
:10355000E9D34FF4BE7003F0F7F950B14FF4BE70E9
:1035600003F0E4F948F0004808AA0121002003F024
:10357000C3F908F0FF0000B3012600241BE006EAAF
:103580000800B0B100BF6D4850F82400C0F304201B
:10359000074600BF694850F82400C0F30140814647
:1035A000204601F0B9FC054615B149463846A84702
:1035B00000BF7600641C082CE1D308F0004000280E
:1035C0007ED0002006900590002505E04FF0FF30EA
:1035D00004A941F825006D1C002DF7D000BF002084
:1035E000069000246FE05648005D0390039820F099
:1035F000C00753480057401C002863D004A9384630
:1036000002F0CAFB00285DD003984FEA901A3846B2
:1036100001F0CAFC814601F07FFC0290029810B9CB
:10362000BAF1030F4BD1BAF1030F11D1394605A8F6
:103630000246CB0801F0070112F803C04FF0010E5B
:103640000EFA01FE4CEA0E0C02F803C000BF00BFE8
:1036500000BF00BF4FF0A041084600F5E06151F8FF
:103660002710C1F3014900BF08A9384602F094FBB6
:103670008346BBF1000F02D0B9F1020F05D0BBF1B8
:10368000000F1BD1B9F1030F18D1BAF1030F0FD1FD
:10369000B9F1020F01D1032000E002200190384669
:1036A000019903F0DCF80698401CC0B2069000BFF8
:1036B000029818B151463846029A904700BF00E080
:1036C00036E000BF641C042C8DD3069858B3012744
:1036D00003AA0121002003F00FF900250AE003A846
:1036E00050F8250008A951F82510884201D000277C
:1036F00002E06D1C002DF2D000BF17B10020069033
:1037000010E000250CE003A850F8250008A941F8B6
:10371000250005A850F8250004A941F825006D1CD6
:10372000002DF0D000BF069800287FF458AF00BFEE
:1037300009B0BDE8F08F0000046300401065004050
:103740001889002000F01F0201219140024A43091C
:1037500042F823107047000080E200E000F01F02F2
:10376000012191404209920002F1E022C2F80011C9
:103770007047000000F01F0201219140024A4309F6
:1037800042F823107047000000E200E010B5002866
:1037900007DA4A07140E054A00F00F031B1FD45422
:1037A00003E04A07130E024A135410BD18ED00E05F
:1037B00000E400E010B54FF4807002F06AFB60B1E5
:1037C0004FF4807002F06EFB012002F075FB0120C7
:1037D0000B494870002001F01DFC4FF4827002F08C
:1037E00058FB58B14FF4827002F05CFB022002F0EB
:1037F00063FB01200249887001F00CFC10BD000041
:10380000B488002010B5002009490860002109484B
:10381000C0F84411C0F84811C0F84C110020054907
:10382000C1F8000102493C39086004F0A1FB10BD59
:10383000401101400010014010B504F0A3FA10BD82
:1038400010B503F087F910BD0148024908607047C0
:103850000090D0037480002010B501F085FE28B1DF
:1038600092480088C0F304209149086001F0D0FE1E
:1038700010B190489049486701F0F2FE30B18B4892
:10388000E0380068C0F342308C49086001F012FF54
:1038900028B18B48006820F080708949086001F0E9
:1038A00021FF48B10020874908604FF08041C1F8EE
:1038B00010018249091F086001F03EFF18B1032082
:1038C0007E496431086001F04FFF68B105207E49F0
:1038D000086001207C497831086000207A4908316D
:1038E00008603F20091F086001F056FF002855D0EE
:1038F0006E48E0300068754908606C48E430006844
:10390000091D08606948E8300068091D08606748BB
:10391000EC300068091D08606448F0300068091D3B
:1039200008606248F4300068091D08605F48F8309C
:1039300000686649203108605C48FC300068091D59
:10394000086063480068091D08606148001D006840
:10395000091D08605E4808300068091D08605C4861
:103960000C300068091D086059481030006857493C
:1039700040310860564814300068091D08605448FA
:1039800018300068091D086051481C300068091D86
:1039900008604F4820300068091D086001F0BAFD3A
:1039A00030B14248CC38006800F04F004949086007
:1039B00001F004FE40B14848006800F0010018B171
:1039C0006FF001004449086001F03AFE28B1434815
:1039D000006840F4806041490860394874380068E4
:1039E00040F4700036497439086000BF00BF00BF62
:1039F000BFF34F8F00BF00BF00BF00BF00BF00BFBD
:103A0000BFF36F8F00BF00BF00BF3548006800F0F4
:103A1000004028B93248001D006800F00040E8B3BB
:103A200001203049086000BF2F4800680028FBD003
:103A300015202B49086000BF2B4800680028FBD0E8
:103A400015212748001D016000BF27480068002895
:103A5000FBD000202349086000BF234800680028ED
:103A6000FBD000BF00BF00BF00BF00BFBFF34F8F40
:103A700000BF00BF00BF1248F038006800F4E060EB
:103A80001A490843001D0E49F039086000BF00BF05
:103A900000BFBFF34F8F00BF00BF00E003E000BFD7
:103AA00000BF00BFFDE7FFF7CFFE10BD24030010ED
:103AB000403501400DF0ADBA00C007403C05004064
:103AC000FCED00E00C0100401056004020C5004015
:103AD00024040010E40E0040000400403C170040A5
:103AE0000012001004E5014000E401400000FA0566
:103AF00010B50648007F20B10449054804F047FC92
:103B000003E00249024804F0A1FB10BD2089002017
:103B10000020004002E008C8121F08C1002AFAD1A4
:103B200070477047002001E001C1121F002AFBD13D
:103B3000704700000146202908DA012088400A4A1F
:103B4000104008B1012070470020FCE7402909DA45
:103B5000A1F12000012202FA00F008B10120F2E7F1
:103B60000020F0E70120EEE7FC06FFBD00BFEFF309
:103B70001081084672B670470146082901D300201B
:103B8000704719B1012901D0042901D10020F7E7BC
:103B90000120F5E7F0B505460B4600215C680EE014
:103BA000665C481C275CAF4206D1881C20445060EC
:103BB000701E10800020F0BD701C014400BF1888EA
:103BC0008842EDD80520F6E710B501220221002039
:103BD00000F058FF044600BF1CB1072C01D020465E
:103BE00010BD00BF07220221012000F04BFF044658
:103BF00000BF1CB1072C01D02046F1E700BF0A220C
:103C00000021084600F03EFF044600BF1CB1072C0F
:103C100001D02046E4E700BF0020E1E710B5002412
:103C200006E00849096811F8340002F027FA641C1C
:103C3000054800788442F4D30448006800F03EF957
:103C400010BD000030800020348000202487020056
:103C50002DE9F84306460C461746052F02D20720E9
:103C6000BDE8F88302F0DCFA38B902F0A9FA05469B
:103C700000BF0DB12846F3E700BF1648066016489E
:103C8000047016480760002015490860154908604F
:103C900015E006EBC40814480068009098F802008C
:103CA0008DF8010098F80000104A694602F010FAF9
:103CB000054600BF0DB12846D2E700BF00BF200077
:103CC000A4F10101CCB2E4D1094A0021094800F075
:103CD0007FF8C5E730800020348000203880002045
:103CE0003C8000204080002028870200F958020014
:103CF0004D5202002487020000BF1348006800F004
:103D0000010000B100BE00BF00BF00BF00BF00BF88
:103D100000BFBFF34F8F00BF00BF00BF0A48E438A9
:103D2000006800F4E06009490843001D0649E439D1
:103D3000086000BF00BF00BFBFF34F8F00BF00BFD0
:103D400000BF00BF00BFFDE7F0ED00E00000FA0596
:103D50003EB50446002000900190029002946A460D
:103D6000002144F20100FFF7C7FF3EBD70B50446D5
:103D70000D46204601F097FD28B12946204601F066
:103D800081FD002070BD0520FCE7034609B90E2027
:103D9000704712B1501E104008B10920F8E71960B1
:103DA000501E988000209860D86000BFF0E770B582
:103DB00004460D46204601F076FDA188884205D8CC
:103DC0002946204601F07DFD002070BD0420FCE75F
:103DD00010B503460C4600BF0B48807808B9082090
:103DE00010BD00BF0AB90720FAE70BB90720F7E7B3
:103DF0001868007C08B10820F2E7196800200874F0
:103E00004C744A6100BFEBE76089002010B503F0F5
:103E100005FD00200F49087048700B2088700020B5
:103E20000D4908600D4908700D4908701420FFF70E
:103E300089FC07211420FFF7A9FC1420FFF78EFC52
:103E4000002003F0C1FC03F0B9FC06490860002023
:103E500010BD0000608900204480002054800020B4
:103E600055800020488000202DE9F04104460E4690
:103E70001746254600BF1048807810B90820BDE8D5
:103E8000F08100BF0CB90820F9E7052E01D2072008
:103E9000F5E7686908B90820F1E7687C012801D1D5
:103EA000304600E0002080463B46424631462846E8
:103EB00004F00EF8E3E700006089002070B50446C6
:103EC000254600BF0848807808B9082070BD00BFAB
:103ED0000CB1686908B90820F8E7002028740221AD
:103EE000284604F024F8F1E7608900202DE9F0412C
:103EF00004460F48077821460E48FFF737FF8046F3
:103F000097B100200A49087001220B490B4802F0C2
:103F1000DDF9054600BF2E4626B100BF3046FFF74B
:103F200017FF00BF00BF00BF4046BDE8F0810000A2
:103F30006E800020288B00206D8000206080002093
:103F40002DE9F04188B004460D46174698462E48A4
:103F500007601DB9072008B0BDE8F081A88882B2CB
:103F60002A482968FFF711FF064600BF0EB1304608
:103F7000F1E700BFA88982B22548A968FFF705FFCD
:103F8000064600BF0EB13046E5E700BF20222149BA
:103F90006846FFF734FA60690690207C08B101207A
:103FA00000E000208DF814008DF81C80607C08B1C2
:103FB0000E2000E000208DF81500E0680290A06857
:103FC00003902068019060680090134A6946134886
:103FD00002F03AF9064600BF0EB13046BBE700BF1B
:103FE00000200F4908702068401C58B19DF81D0042
:103FF00010B90A4802F0D4F901220A49074802F030
:1040000065F9A8E70020A6E768800020288B00203B
:10401000388B00205C8702001D8102006080002038
:104020006E8000206D80002070B5044621460B484C
:10403000FFF7BDFE054675B9094802F04BFB50B9C4
:1040400008490648FFF792FE28B9012205490448AD
:1040500002F08AFA0546284670BD0000388B002021
:10406000608000206C80002010B50446204603F0DC
:10407000CBFC10BD70B5044625460E488068B0B133
:10408000ADB9FFF773FD06460A4800680A490860A3
:10409000084840684FF0E021C1F8040100200549BC
:1040A00088601EB900BF62B600BF00BF00BF00BF7E
:1040B00070BD00006C8A002000E100E070B505468C
:1040C0000C462068401C28B1206802F0EDFB2068F7
:1040D00002F0B9FB6068401C18B10021606802F072
:1040E000A5FB28792D4901EB4010007F50B32868CB
:1040F000A169C0F8241500BF617D227D286841EACE
:104100000203C0F86C3500BFD4E90012286802F041
:1041100010FE207D01283FD1A068401C18B100216D
:10412000A06802F083FBE068401C28B1E06802F060
:10413000BBFBE06802F087FBD4E90221286802F0AB
:10414000E4FD29E02868A169C0F8241500BF617D5D
:10415000227D286841EA0203C0F86C3500BFD4E92B
:104160000012286802F0B8FD207D012814D1A06853
:10417000401C18B10021A06802F058FBE068401C08
:1041800028B1E06802F090FBE06802F05CFBD4E943
:104190000221286802F089FD70BD000020890020FE
:1041A00010B5B8210148FFF743F910BDE4840020A1
:1041B00010B5FFF7F5FF10BD10B50449C96C034AEF
:1041C000926C01EA020003F03BFD10BDE484002084
:1041D00010B5044600BF0CB90E2010BD00BF00BFD3
:1041E00006480078012801D00820F6E700BF0448FF
:1041F0000168204603F0B6FAEFE700002C800020AB
:10420000208000200146002200BF09B90E2070471F
:1042100000BF0020054B18600120054B18700020DE
:10422000044B1860044801601046F0E72880002025
:104230002C800020248000202080002070B50446BF
:104240000E4600BF04B970BD00BF00BF06B9FAE753
:1042500000BF00BF1D480078012800D0F3E700BF71
:1042600035462088112815D0302804D0322807D0B0
:10427000332814D109E0211D284603F081F80FE00E
:10428000211D284602F0BEFD0AE0211D284602F04D
:10429000FBFE05E0211D284602F08EFF00E000BF76
:1042A00000BF95F8C80278B1208830280CDB208840
:1042B0004F2809DCA088B5F8CA12884204D1B5F8A5
:1042C000CA12284601F07EF800BFBCE72C8000200F
:1042D00070B504460D4600BF0CB90E2070BD00BF7E
:1042E00000BF0B480078012801D00820F6E700BF86
:1042F0000848006808B90820F0E794F8C70208B138
:104300001120EBE72946204601F05CF8E6E70000C3
:104310002C800020288000202DE9F843054688469F
:104320002E1D28881F2872D008DC10280DD01128D7
:104330004DD01B286AD01D2867D160E0212876D097
:104340003B2873D05628F7D18FE000BF308814285F
:1043500001DA012000E00020074627B900BF002055
:10436000FFF7F6FC00BF00BFA9883288484B03EB7B
:104370000210002200F04EF9044600BF274627B184
:1043800000BF3846FFF7E4FC00BF00BF318841485A
:10439000FFF79EFF0446112C08D000BF274627B127
:1043A00000BF3846FFF7D4FC00BF00BF012000F07B
:1043B000A7FAFFF701FF142803D1002000F096FAB6
:1043C00004E0002000F09CFA03F094FA5CE0FFF7B0
:1043D000F3FE70B9FFF722FC044600BF274627B161
:1043E00000BF3846FFF7B4FC00BF00BF012000F05B
:1043F0007DFA03F07FFA002000F082FA44E02846BC
:1044000002F0BCFC40E002E000E03CE03CE0308830
:10441000311D75DF044600BF274627B100BF38466F
:10442000FFF796FC00BF00BF2EE000E00FE0002089
:104430000090A88869468FDF044600BF274627B151
:1044400000BF3846FFF784FC00BF00BF1CE0A8880F
:10445000132176DF044600BF274627B100BF384648
:10446000FFF776FC00BF00BF0EE0A888132176DFBF
:10447000044600BF274627B100BF3846FFF768FC57
:1044800000BF00BF00E000BF00BFBDE8F883000030
:1044900024810020287D002070B505460E4628881E
:1044A000102802D011282CD115E01748006860B9F7
:1044B00000F010FE044600BF34B11448006818B183
:1044C000204612490968884700BF0F480068401C11
:1044D0000D49086016E00C480068401E0A49086053
:1044E0000846006860B9FFF76FFB044600BF34B1AF
:1044F0000648006818B1204604490968884700BF8B
:1045000000E000BF00BF70BD1C80002018800020AC
:1045100070B504460E462088102804D011281DD0FE
:104520001A2840D11EE003F0CFF8A08803F09AF8D3
:1045300020B900BF0420FFF70BFC0EE0E07B02284F
:1045400001D1012000E000200546A2882B46174932
:10455000A1F1480003F084FB00BF24E0A08803F031
:10456000D5F820E0207A0121B1EB101F01DA0120FB
:1045700000E000200346A2880C49091DA1F14C006F
:1045800003F06EFB207A0221B1EB101F01DA01204B
:1045900000E000200346A28804490831A1F1500040
:1045A00003F05EFB00BF00BF70BD0000308500203F
:1045B0002DE9F04107460C46207820B1012820D093
:1045C000022824D122E0618804F10E02384600F06E
:1045D00021F8054600BF2E4626B100BF3046FFF742
:1045E000B7FB00BF00BF384600F0FAF8054600BF31
:1045F0002E4626B100BF3046FFF7AAFB00BF00BF22
:1046000005E0217BA06800F001F900E000BF00BFD9
:10461000BDE8F08110B5034600BF0BB90E2010BDF8
:1046200000BF59802AB15488DC8010889880948813
:104630001C810020F3E7000070B586B004460D46EB
:10464000154B0FCB01AE0FC600BF14B90E2006B03C
:1046500070BD00BF00BF0DB90E20F8E700BF2146B6
:1046600001A862DF064600BF0EB13046EFE700BF8B
:1046700020788DF816000120ADF814004FF6FF7079
:1046800060802868E0600020A0800021218105A8CA
:10469000FFF79EFDDBE70000B486020070B586B030
:1046A00005460E46344604B10DB906B070BD6088AB
:1046B0004FF6FF71884204D06088A988884200D0F4
:1046C000F3E72888112806D0392816D12946204634
:1046D00002F0F8FD12E0A888618888420CD1E068F9
:1046E00050B102208DF804004FF6FF70608001A9E0
:1046F0002046E268904700BF00E000BF00BF00BF57
:10470000D3E770B586B005460C46142101A8FEF724
:104710008FFE04F10E06207800283AD1A0880128E7
:1047200037D1A0792978884233D1002022E000EBEC
:10473000C00136F81110022902D0032917D107E071
:1047400000EBC00106EB41010A89ADF816200FE02D
:1047500000EBC00106EB41010989ADF8121000EB36
:10476000C00106EB41014A89ADF8142000E000BF0A
:1047700000BF401C217A8142D9D8E86848B16088DE
:10478000ADF8060000208DF8040001A92846EA686B
:10479000904706B070BD0000FEB504460E461546B3
:1047A00000BF0CB90E20FEBD00BF142D01DD072097
:1047B000F9E760884FF6FF71884201D10820F2E7DF
:1047C000064A07CA8DE807002089ADF80200ADF857
:1047D00006500296608869469CDFE4E7D0860200B6
:1047E00010B5044600BF0CB90E2010BD00BF608894
:1047F0004FF6FF71884201D0E08808B90820F4E73D
:10480000E1886088012200F05FFBEEE72DE9F041CE
:1048100005460E46002718E000BF042000F04EF8C1
:10482000E85DFFF701FC044664B1112C0AD000BF1B
:10483000A046B8F1000F04D000BF4046FFF788FA49
:1048400000BF00BF112CE8D07F1CB742E4D3701E1C
:10485000285C0D2805D100BF0A20FFF7E5FB1128D1
:10486000FAD0BDE8F08138B502F03CF9044600BF4B
:10487000254625B100BF2846FFF76AFA00BF00BFF2
:10488000002000906946012002F07CF8044600BF39
:10489000254625B100BF2846FFF75AFA00BF00BFE2
:1048A000684602F0BFF8044600BF254625B100BFA8
:1048B0002846FFF74DFA00BF00BF38BD10B50246CD
:1048C0000949885C00BF4FF0A0442146D1F8043567
:1048D000012484409C43C1F80845012484401C40C5
:1048E000C1F80C4500BF10BDEC85020010B50446B0
:1048F0000249085D012101F0E2FF10BDEC850200D4
:1049000010B504460249085D002101F0D8FF10BD32
:10491000EC85020010B50146094B585C00BF4FF012
:10492000A044234600BFD3F80445C44004F001046A
:104930000CB1012000E00020024682F0010010BD11
:10494000EC8502007CB500240CE00948055D0020E0
:1049500000900346012211460190284601F02AFFEB
:1049600000BF641C042CF0D300F004F87CBD0000F0
:10497000EC85020010B5002403E02046FFF7B6FFE7
:10498000641C042CF9D310BD10B5002403E02046AC
:10499000FFF7B6FF641C042CF9D310BD02464FF09C
:1049A000FF30002106E0054B5B5C934201D10846D5
:1049B00002E0491C0429F6D300BF7047F0850200CD
:1049C0002DE9F04106460F464FF00008002430461E
:1049D000FFF7E4FF0446042C3ED20FB3012F02D0B0
:1049E000022F38D130E004EB4400214911F8008057
:1049F00004EB44000844407850B11E4A4FF4004193
:104A00001D480068FFF730FA05460DB919480670D1
:104A100004EB4400164908448078184908551AE008
:104A200015480068FFF74AFA1448005D04EB44019A
:104A30000F4A11448978884205D104EB440011469D
:104A4000084490F8028006E004EB4400084908445A
:104A500090F8018000BF00BFB8F1000F06D00848F1
:104A6000006818B14046064909688847BDE8F081EA
:104A7000B884002010800020FC85020011800020F6
:104A80000C80002030B503460020042B23D2012ADD
:104A900007D1012903D103F10E04E4B200E00024A0
:104AA000224679B1012902D0022911D104E003EB99
:104AB00043040A4D2A550DE003EB4304074D2C44F3
:104AC000627007E003EB4304044D2C44A27001E044
:104AD000072000BF00E0072030BD0000B8840020A0
:104AE00070B5044600250548007800F0010018B1B3
:104AF000204600F005F80546284670BD04800020D9
:104B00002DE9F047044600260025D748007820B15B
:104B10000020D549087000F0F5FF182C79D2DFE8A5
:104B200004F00C11124579ADF1FFEEEDECEBEAE982
:104B3000E8E7E6E5E4E3E2E1E0DF00F0E3FFCB48AD
:104B400004708DE100BF0020FFF7E4FE58B10020A3
:104B5000FFF7CCFE022C02D14FF4E16001E04FF4EC
:104B60007A60054609E00020FFF7CAFE022C01D159
:104B7000C82001E04FF4C8700546BC4804704FF4EB
:104B80000040A5FB00204FF4FA73D71840F1000154
:104B90005A0000233846FEF701FC814600224946B0
:104BA000B3480068FFF760F9064659E10020FFF7B7
:104BB000B1FE58B10020FFF799FE032C02D14FF44B
:104BC000487001E04FF47A60054609E00020FFF7E5
:104BD00097FE032C01D1C82001E04FF4C8700546B0
:104BE000A24804704FF40040A5FB00204FF4FA7374
:104BF000D71840F100015A0000233846FEF7CEFBDB
:104C00008146002249469A480068FFF72DF906467A
:104C100026E124E10020FFF77DFE58B10020FFF7D8
:104C200065FE042C02D14FF47A6001E04FF47A6003
:104C300005460AE00020FFF763FE042C02D14FF482
:104C4000C87001E04FF4C8700546884804704FF4FE
:104C50000040A5FB00104FF4FA73CF1840F100019B
:104C60005A0000233846FEF799FB81460022494648
:104C70007F480068FFF7F8F80646F1E00020FFF7EC
:104C800049FE50B10020FFF731FE052C01D1C820AC
:104C900001E04FF47A60054609E00020FFF730FE9E
:104CA000052C01D1C82001E04FF4C87005466F48BB
:104CB00004704FF40040A5FB00204FF4FA73D7189E
:104CC00040F100015A0000233846FEF767FB814699
:104CD0000022494666480068FFF7C6F80646BFE06E
:104CE000B8E0B6E0AAE0A1E098E092E05FE05DE025
:104CF0005BE059E057E051E042E033E024E015E0AA
:104D00000EE0FFE70020FFF7D9FD584804700022AD
:104D100040F6CD4156480068FFF7A6F806469FE0EA
:104D20000020FFF7EDFD5148047099E001204E4945
:104D30000870FFF7C3FD002240F6CD414C480068E3
:104D4000FFF792F806468BE0012047490870FFF70D
:104D5000B5FD00224FF4804145480068FFF784F814
:104D600006467DE0012040490870FFF7A7FD0022BC
:104D700040F6CD413E480068FFF776F806466FE002
:104D8000012039490870FFF799FD00224FF4804156
:104D900037480068FFF768F8064661E0FFF7F4FD62
:104DA000324804705CE000BF00BF00BF00BF314864
:104DB0000068FFF783F80646C4F1110515B30EBB72
:104DC000012D18D9A8B2C82148434FF4004180FBF7
:104DD00001304FF4FA729F1840F100015200002395
:104DE0003846FEF7DBFA8146002249462148006832
:104DF000FFF73AF806460220FFF782FD01201E4920
:104E0000087005E00220FFF771FD00201A490870C4
:104E100026E000F077FE1548047021E000F072FEF5
:104E20000020FFF76DFD1148047019E000F06AFEE4
:104E30000120FFF765FD0D48047011E000F062FEEF
:104E40000020FFF75DFD0120FFF75AFD07480470C1
:104E500006E000BFFFF798FD0448047000E000BFC3
:104E600000BF3046BDE8F0870180002000800020B0
:104E7000F4850200F88502000880002070B5044621
:104E80000D460D2C04D1284600F035FE064605E0FF
:104E900000BF2046FEF75CFF00BF00BF00BF70BD33
:104EA00070B540F2666201210648FEF7D1FE044665
:104EB00000BF254625B100BF2846FEF749FF00BFC9
:104EC00000BF70BDF87F00207FB506460C46154632
:104ED0008DF80C5000208DF80D00064A07CA8DE8A9
:104EE0000700ADF8024003A80290694630469CDFF7
:104EF00004B070BDC48602004FF0FF31054A42F88D
:104F00002010082804DBFF23A0F10801503253547D
:104F100070470000C88800200146024850F8210070
:104F200070470000C88800202DE9F04F03460C466A
:104F30004FF0FF390AB1002000E0082084460AB192
:104F4000082000E00C208046614624E0154850F817
:104F50002100401CF0B91D460846274616464FFA68
:104F600080FBDFF840A00AF1300A0AF805B0DFF84C
:104F700034A04AF820704EB94FFA85FBA0F1080A18
:104F8000DFF820E00EF1500E0EF80AB000BF4FFA25
:104F900081F902E0491C4145D8D300BF4846BDE82D
:104FA000F08F0000C8880020014601484056704735
:104FB000F8880020F8B504460E4694F8C60200EBC7
:104FC0008001C1EB801004EB400594F8C502B8B134
:104FD00094F8C522521ED1B294F8C62202EB820385
:104FE000C3EB821204EB420501EBC10305F10A0297
:104FF00002EB43000289521C92B2ADF8002002E09D
:10500000E888ADF800002889ADF80200694630460E
:1050100096DFF8BD70B505460DB9094C01E0084CA6
:10502000083409E0204600F060FD064606B904E0B9
:1050300028467168884700BFF4E700BF70BD0000D4
:10504000BC8800202DE9F04782461F4800680028F0
:1050500036D01D480068056802F0B0FB07461B48C3
:1050600004682146384602F074FEC61C18480078D1
:1050700008B902F0B5FBAE4201D2284600E0304646
:10508000044424F07F44204602F092FB02F096FB99
:1050900080463946404602F05CFE00F1030939467D
:1050A000204602F056FE814509D902F087FB814671
:1050B00002F07EFB2F2000F011FF02F0A5FF01E0BF
:1050C00002F0ACFBBDE8F08744800020488000205F
:1050D0005680002010B5012200210846FFF7D2FCBF
:1050E000044600BF1CB1072C01D0204610BD00BFF4
:1050F000072202210120FFF7C5FC044600BF1CB1B6
:10510000072C01D02046F1E700BF04220221002035
:10511000FFF7B8FC044600BF1CB1072C01D02046A5
:10512000E4E700BF0020E1E77CB504460D4600201F
:1051300000900190A81D00EBC4008079ADF800003C
:10514000A81D00EBC4008079ADF80200002269467A
:10515000204690DF06467CBD10B504466188034AB0
:1051600002EB01102146FFF7CCFA10BD248100208C
:1051700070B50748FFF746F8044600BF254625B13D
:1051800000BF2846FEF7E4FD00BF00BF70BD000071
:10519000595102002DE9F84F04460F4690464FF052
:1051A000000B94F8C60200EB8001C1EB801004EB09
:1051B000400594F8C50200EBC00105F10A0000EBC0
:1051C000410A94F8C502401C2979884207D16B46F0
:1051D00000225146204600F059FC834627E094F80F
:1051E000C5621FE02879401EB04202D14FF000098D
:1051F00006E0701C00EBC00105F10A0000EB41095C
:105200006B464A465146204600F040FC10B14FF034
:10521000010B0AE0CA4694F8C502401C84F8C50296
:10522000701CC6B22879B042DCDC00BF00BFBBF105
:10523000000F04D1012038700020BDE8F88F002055
:1052400038706946404697DFF7E700002DE9F047E0
:105250008146002532E01C48006800EBC504217837
:10526000012000FA01F619480068304020B31748C1
:105270000068B04315490860207800F097FF0746A2
:10528000217801208840124909680840217807FAEE
:1052900001F188420FD16078012800D100E00020A0
:1052A000784080F00108606820B108F0FF012078A4
:1052B0006268904700BF00BF681CC5B2054800780F
:1052C0008542C8DBBDE8F0873080002040800020A8
:1052D0003C800020348000202DE9F04104460D463A
:1052E000164694F8C60200EB8001C1EB801004EB77
:1052F0004008404602F016FA0746B7B31C4800685B
:10530000062832D21B481A49096800EBC1104680B2
:105310001849174A126801EBC211081D762241464E
:10532000FEF76DF83DB100201249114A126801EBF9
:10533000C211087006E002200E490D4A126801EB06
:10534000C21108700B480A49096800EBC110C76711
:1053500007480068401C064908600846006806497E
:105360000968884201D102F099F8BDE8F081000097
:1053700024800020B4850020288000202DE9F04101
:10538000A0B004460D46164694F8C60200EB800114
:10539000C1EB801004EB4008404602F0C3F9074619
:1053A00057B17C22064901A8FEF729F8ADF806603E
:1053B000029501A8B84700BF20B0BDE8F081000009
:1053C000208602002DE9F04104460D464FF433716A
:1053D0002046FEF72DF8A4F8CA52002018490860AC
:1053E00084F8C90284F8C60284F8C50294F8C6029B
:1053F00000EB8001C1EB801004EB400794F8C6027B
:10540000104901EB8000006838603A4601212846C7
:1054100094DF0646112E0CD000BF16B13046BDE811
:10542000F08100BF012084F8C702002084F8C80280
:1054300004E0012084F8C70284F8C8020020EEE7E7
:10544000248000209C850020014614480078144ADE
:10545000127890421DD011480078401C0F4A1070FD
:1054600010460078022801D1002010700D480B4A28
:10547000127850F8220008600B4A0868126810443D
:10548000094A10601046006820F07F40106001203B
:1054900070470020086000BFFAE700005480002039
:1054A000558000204C800020488000202DE9F843E2
:1054B00005460E461746984669461048006800F0B3
:1054C00033FC044614B90420BDE8F8831C212046AF
:1054D000FDF7AEFF012020712560C4F80880084860
:1054E0000068B6FBF0F0E060676169460348006859
:1054F00000F044FC02F092F80020E5E73887020053
:105500002C87020010B50446D4E90321501828DF87
:1055100010BD000013480078062820D11148001D56
:10552000007800F00F00D0B90E480830007800F085
:10553000F000302801D1012070470A480830007877
:1055400000F0F000402801D10120F5E705480830BF
:10555000007800F0F000502801D10120ECE7002095
:10556000EAE70000E00F00F013480078062820D199
:105570001148001D007800F00F00D0B90E48083027
:10558000007800F0F000302801D1012070470A486F
:105590000830007800F0F000402801D10120F5E744
:1055A00005480830007800F0F000502801D10120B3
:1055B000ECE70020EAE70000E00F00F01348007875
:1055C000062820D11148001D007800F00F00D0B946
:1055D0000E480830007800F0F000302801D101209A
:1055E00070470A480830007800F0F000402801D1E8
:1055F0000120F5E705480830007800F0F000502859
:1056000001D10120ECE70020EAE70000E00F00F004
:105610000A48007806280ED10848001D007800F0DE
:105620000F0040B905480830007800F0F00030283D
:1056300001D1012070470020FCE70000E00F00F0DE
:1056400006480068062806D10448001D00680628A0
:1056500001D1012070470020FCE70000300100105C
:1056600013480078062820D11148001D007800F06A
:105670000F00D0B90E480830007800F0F000302854
:1056800001D1012070470A480830007800F0F0008E
:10569000402801D10120F5E705480830007800F0E6
:1056A000F000502801D10120ECE70020EAE70000DB
:1056B000E00F00F00A48007806280ED10848001DC7
:1056C000007800F00F0040B905480830007800F07D
:1056D000F000302801D1012070470020FCE70000D5
:1056E000E00F00F013480078062820D11148001D73
:1056F000007800F00F00D0B90E480830007800F0B4
:10570000F000302801D1012070470A4808300078A5
:1057100000F0F000402801D10120F5E705480830ED
:10572000007800F0F000502801D10120ECE70020C3
:10573000EAE70000E00F00F00A48007806280ED1E2
:105740000848001D007800F00F0040B905480830F7
:10575000007800F0F000302801D1012070470020CF
:10576000FCE70000E00F00F00A48007806280ED1A0
:105770000848001D007800F00F0040B905480830C7
:10578000007800F0F000302801D10120704700209F
:10579000FCE70000E00F00F00A48007806280ED170
:1057A0000848001D007800F00F0040B90548083097
:1057B000007800F0F000502801D10120704700204F
:1057C000FCE70000E00F00F030B585B004460D4660
:1057D0002068806808B905B030BD14216846FDF71F
:1057E00027FE0195A0680490207910B1012813D1FB
:1057F00007E001208DF800002069029060690390A5
:105800000BE002208DF800000749E0680968484372
:1058100002906069039000E000BF00BF20688168CB
:105820006846884700BFD6E72C870200F0B50346DC
:1058300000241FE0124E306806689E4203D90668B5
:10584000F61A06601AE006689B1B066834440026B8
:1058500006600B4E35680A4FC6693E60C66846B1A1
:105860000E1926F07F464660C66886601668C661D7
:10587000156000BF024800680028DBD100BFF0BD02
:105880004480002070B504460D462A46002120467B
:1058900000F00EF8A068401CA06070BD01468A6848
:1058A000C868801A704701468A68C868801A7047BD
:1058B00010B583680B44848823400468E35C13704C
:1058C00010BDC26883881A4003689954C268521C8C
:1058D000C260704770B50021064800F068FA0446BF
:1058E00000BF254625B100BF2846FEF731FA00BFAC
:1058F00000BF70BD788000202DE9F04105460F46BD
:10590000012000FA05F418480068FEF7D7FA0646A9
:105910000EB1BDE8F081154800682040E0B9284686
:1059200000F044FC28B11248006820431049086088
:1059300004E00F480068A0430D4908600B48006868
:1059400020430A49086000220A48016806480068A6
:10595000FEF78AFA064604E004480068A0430349BB
:10596000086000BFD5E700002487020040800020C7
:105970003C800020388000202DE9F8430546884609
:105980000D4C01266A4631462046FDF7B3FC07461A
:1059900000BF00BF67B90948686001F0F3F821460D
:1059A00008741C238C2206490648006800F0A8F9F8
:1059B0000020BDE8F8830000148B00202C87020033
:1059C000788A00203887020070B504460D46207999
:1059D0001D4901EB4010007FF8B14FF48871206839
:1059E00001F08CF94FF49071206801F087F94FF4C1
:1059F0009271206801F082F94FF4A271206801F0E1
:105A00007DF91249206801F089F9206800F030FB27
:105A10000646294600F0FCFA14E04FF48E71206827
:105A200001F03CF94FF4A271206801F037F9084900
:105A3000206801F042F9206800F01AFB064629466A
:105A400000F0E6FA70BD000020890020100302007B
:105A50008000020001460348007A08B10120704727
:105A60000020FCE7148B002010B502460B8992F849
:105A7000C60200EB8004C4EB801002EB40000089FA
:105A8000834201DA012010BD0020FCE770B5044616
:105A9000E2B90D8994F8C60200EB8006C6EB8010CF
:105AA00004EB40000089854201D1002070BD0889C7
:105AB000401C188094F8C60200EB8005C5EB8010EE
:105AC00004EB4000008958800120EFE70889401C62
:105AD000D588A84201D10020E8E70889401C188039
:105AE000D088401E58800120E0E70146086808B1D0
:105AF00002680A60704701460020704710B5FEF743
:105B000021FF10BD10B50848007850B1002405E011
:105B1000022C02D02046FEF7E9FE641C042CF7D3C9
:105B200001E0FEF727FF10BD0880002010B50C2013
:105B300000F0D0F900BF00F0C5F90028FBD1014901
:105B4000887010BDB4880020172101804180002199
:105B5000017141711B218171C17170472DE9F041C3
:105B6000064600274748D0F8008078E016B1344652
:105B7000E66947E04448007800EB40014248001DD8
:105B800000EBC105001F0078401C3F490870084623
:105B900000788978884202D100203B4908706C68FF
:105BA000287801281AD0022802D0032817D107E04C
:105BB000686802F049F900B10127002020744EE026
:105BC00007E030490868002101742E4AC16911605C
:105BD00000BF2C4800680028F3D140E000E03EE020
:105BE00000BF207C00B13AE0A8686060E868A0606F
:105BF0002869E0606869A0612448007808B1002045
:105C0000606000BF224960680968401A20F07F4048
:105C10002049884208D21E496068096802F099F854
:105C2000A168084420600FE019486168006802F02C
:105C300090F80546A068A84203D9A068401B2060E0
:105C400001E00020206000BF00206060A060012013
:105C500020740020E061204602F0C2F800BF002E50
:105C600084D109480078084949788842F8D11FB999
:105C700004480068404502D00120BDE8F0810020C2
:105C8000FBE700004480002060890020578000204E
:105C900048800020FFFF7F0070B5002400BF25462C
:105CA00025B100BF2846FEF753F800BF00BF70BD06
:105CB000FFF7F2FF02F058F8FFF720FFFFF7F0F8C8
:105CC00002F096FAFEF7CFFDFFF704FEFFF750FA59
:105CD00001F036F8FEF76CFA01F00CFE0020FEF73A
:105CE0000FFE00BF01F024FCFCE770B5044620461F
:105CF000FDF7DBFA05460DB1002070BD1120FCE771
:105D000010B5044609B90E2010BD92FBF3F003FB59
:105D1000102008B10920F7E7216000206060A06032
:105D2000A281E38100BFEFE770B504460D46294626
:105D30002046FDF76FFA18B129882068084470BD25
:105D40000020FCE770B505460C4620886188884233
:105D500004D12846FDF7A0FA012070BD0020FCE721
:105D600070B504460D4629462046FDF778FA18B16D
:105D700069882068084470BD0020FCE770B50546BE
:105D80000C4620886188884204D12846FDF75EFAD7
:105D9000012070BD0020FCE730B502460B46D40858
:105DA00002F00702012090401D5D284030BD70B513
:105DB00004460E4600BF0CB90E2070BD00BFC4F8EB
:105DC000A8601720208060801B202071002505E03E
:105DD000A11D01EBC500FFF7B7FE6D1C142DF7D315
:105DE0000020EAE72DE9F04106460F463D46B4881B
:105DF000142C01DBBDE8F0813088242820D006DC9B
:105E0000102809D011280CD0232823D11DE03A28CE
:105E10000CD055281ED10EE03146284601F0B2F8CC
:105E200019E03146284601F0D6F914E031462846FB
:105E300001F014FA0FE03146284601F0D7F90AE0E4
:105E40003146284601F0D2F805E03146284601F0F7
:105E5000F9F800E000BF00BFA81D00EBC400007906
:105E6000A8B1A81D30F8341020469EDF8046B8F156
:105E7000000F0AD10021A81D00EBC400017101210F
:105E8000A81D00EBC400417100E000BF00BF00BFCF
:105E9000B0E701464FF08040405808B101207047FC
:105EA0000020FCE708B500224FF080410A50095855
:105EB000009100BF08BD0000014908607047000064
:105EC0000803004002480068C0F30040704700002B
:105ED00018040040012291070A50704700B970472A
:105EE00000BF00BF00BF00BF00BF00BF00BF00BFBA
:105EF00000BF1F4909681F4A914200D130E000BF2E
:105F000000BF00BF00BF00BF00BF00BF00BF00BF99
:105F100000BF00BF00BF00BF00BF00BF00BF00BF89
:105F200000BF00BF00BF00BF00BF00BF00BF00BF79
:105F300000BF00BF00BF00BF00BF00BF00BF00BF69
:105F400000BF00BF00BF00BF00BF00BF00BF00BF59
:105F500000BF00BF00BF00BF00BF00BF00BF00BF49
:105F600001460139084600D0BBE700BFB7E7000093
:105F7000748000200024F40010B500241648007836
:105F800008B1852425E00020134988604860086135
:105F9000C86000BF00BF4109890001F1E021D1F8CC
:105FA000001101228240114009B1012100E00021CD
:105FB00019B90721002000F02BF800BF00F0E2FD26
:105FC00020B901200549086000BF00BF0120024937
:105FD0000870204610BD0000B4880020180500405D
:105FE00008B5002000906846FEF73EF80748C068F4
:105FF000401E0649C8600846C06808B9FFF796FD0C
:106000009DF80000FEF736F808BD0000B4880020B7
:1060100070B50B4601461A46002907DA5407260ECA
:10602000104C01F00F052D1F665503E05407250E97
:106030000D4C655400BF00BF00F01F0201219140CC
:106040000A4A440942F8241000BF00BF00F01F02B2
:10605000012191404209920002F1E022C2F80011B0
:1060600000BF70BD18ED00E000E400E080E200E059
:106070000146C1F3073250B27047000070B50546C3
:10608000284601F033FA20B10021284600F0E7FB52
:1060900018E0284601F036FAA0B12846FEF784FF42
:1060A00004462046084951F8201021F00102064913
:1060B00041F8202000BF012101FA04F003490860E3
:1060C00000BF00BF70BD00001065004008630040C5
:1060D0002DE9FC4704460E4617464FF000082046BF
:1060E00001F0F6F910B14FF0080855E0F2783946A2
:1060F0002046FEF719FF0546681C002849D0B078F5
:1061000080B100BF00BF4FF0A042104600F5E06232
:1061100052F8242022F0020100F5E06242F8241037
:1061200000BF0CE096F80190002000904B4602461C
:1061300001460190204600F051FB00BF00BFF078FF
:10614000D0B13078164951F82510164A1140144A3A
:1061500042F82510114651F825104FF4F85202EA82
:1061600004224FF4403303EA00431A4311430C4A1C
:1061700042F8251000BF0EE0A5F108000A49085CAE
:10618000317840EA811042B2A5F1080006490A546C
:1061900001E04FF0040800BF4046BDE8FC87000066
:1061A00010650040FFE0FCFF1889002010B5044690
:1061B000204600F06DFB08B1012010BD0020FCE777
:1061C00070B5164890F8540010B10825284670BDE7
:1061D000002404E0204601F0A5F9601CC4B2202C84
:1061E000F8DB002404E02046FEF786FE601CC4B203
:1061F0000C2CF8DB07210620FFF70AFF4FF4BE70D6
:1062000000F094FB4FF0004000F0AAFB012003498E
:1062100081F8540000252846D9E70000C8880020EE
:10622000034890F8540008B1012070470020FCE7B3
:10623000C8880020014601F06040B0F1005F01D144
:10624000012070470020FCE72DE9F04105460E468D
:10625000174628791C4901EB40144FF00008E07EF6
:1062600020B14FF008084046BDE8F081707F2077EC
:1062700031462846FDF722FF67603069206060687C
:1062800018B1317F2846FFF79FFB00BF28790E49E0
:1062900001EB4010007F28B128680821C0F80015E4
:1062A00000BF05E028680421C0F8001500BF00BF4A
:1062B00000BF0020E0752076A0750120E076002068
:1062C000A0764046D0E70000208900202DE9F04765
:1062D00004460E4617462079304901EB40152079D7
:1062E00001EB4010007F40B13046FFF7A3FF20B91B
:1062F0004FF010084046BDE8F0874FF0000968688D
:1063000080B12079254901EB4010007F28B14FF47E
:106310000471206800F0FFFC04E04FF40171206874
:1063200000F0C8FCE87DD0B1287EB0B1686880B1CB
:1063300020791A4901EB4010007F28B14FF4047115
:10634000206800F0EBFC04E04FF40171206800F0DD
:10635000B4FC4FF011084046CDE74FF00109B9F108
:10636000000F05D1EF75EE6000206876287601E019
:106370002E612F762079094901EB4010007F30B162
:106380004B463A463146204600F08AF8B3E74B4682
:106390003A463146204600F01DF8ACE7208900203F
:1063A00010B5044620790A4901EB4010007F68B916
:1063B000207901EB4010807E40B9204601F088FA38
:1063C00001202179024A02EB4111887610BD0000BC
:1063D000208900202DE9F05F04468B4699462079FC
:1063E0002E4901EB4015A87E28B9B9F1000F02D162
:1063F000204601F06DFA6868002846D14FF4A2717A
:10640000206800F04BFC00BF00BF4FF49271206881
:1064100000F03DFC80464FF48471206800F037FCAA
:1064200082464FF4A271206800F031FC0646BAF1B2
:10643000000F03D116B9B8F1000FE6D0B8F1000F84
:1064400000D106B107E02946206801F013FAE87D83
:10645000697E8842D8DC00BF0020E875B8F1000FE3
:1064600003D003273846BDE8F09F16B10F27384602
:10647000F9E7A87E20B10021206800F02AFC03E0A3
:106480000421206800F025FC04E04FF4017120682D
:1064900000F013FC00273846E5E7000020890020C3
:1064A0002DE9F05F04460D46164699464FF0000A66
:1064B0004FF48871206800F021FC4FF4A27120682D
:1064C00000F01CFC2068C0F834554FF4A7610E5052
:1064D00000BFB9F1000F04D10021206800F026FCB4
:1064E00008E020212068D0F800220A43C0F80022EA
:1064F00000BF00BF20791B4901EB4010406848BB3A
:1065000000BF4FF48871206800F0F1FB83464FF420
:10651000A271206800F0EBFB80464FF49271206876
:1065200000F0E5FB0746BBF1000F04D1B8F1000F06
:1065300001D1002FE5D0002021790A4A02EB411158
:10654000C8750FB14FF0030AB8F1000F01D04FF03A
:106550000F0A04E04FF40471206800F0DFFB50469E
:10656000BDE8F09F208900202DE9F04104460D464A
:1065700090462079144901EB4016207901EB401038
:10658000007F38B12846FFF755FE18B91027384666
:10659000BDE8F081204600F09DF810B11127384683
:1065A000F6E786F81680B5600020B08220790649AB
:1065B00001EB4010007F18B1204600F04DF8E7E7EE
:1065C000204600F003F8E3E72089002070B5044678
:1065D0002079204901EB401500264FF48E71206888
:1065E00000F05CFB0821206800F073FB294620685E
:1065F00001F00FFD686858BB12E000BF4FF48E71C8
:10660000206800F044FB18B9A88AB0F5807FF5D166
:10661000A88AB0F5807F03D02946206801F0F9FCF4
:10662000A88AA97D8842E8DBA88AB0F5807F01D1DD
:106630000F260BE000BF4FF48E71206800F027FB9F
:106640000028F8D00C21206800F043FB0020A8753A
:10665000304670BD208900202DE9F04104462079A4
:106660001B4901EB40154FF000084FF49071206872
:1066700000F044FB4FF4AC71206800F03FFB206851
:10668000AA7DA968C0F844154FF4A9631A5000BF49
:106690000821206800F04AFB6868A8B900BF4FF4E1
:1066A0009071206800F023FB07464FF4AC7120681E
:1066B00000F01DFB06460FB9002EF0D00EB14FF0D2
:1066C0000F080020A87500BF4046BDE8F08100001B
:1066D0002089002001460879044A02EB4010807DA1
:1066E00008B1012070470020FCE70000208900204D
:1066F00002460120044B58741846007A08B901205C
:1067000070470020FCE70000148B002070B50446A1
:106710000D46012C01D0032C0BD1002005494874F3
:10672000012C01D1012000E000200249087400F092
:106730002FFF70BD148B002070B504460E461B4819
:10674000007A012825D0022824D10025022C02D06D
:10675000032C0CD105E01648006800F0E1FD054669
:1067600006E01348006800F0C9FD054600E000BFE0
:1067700000BF6DB100200D490872022C00D100E06D
:106780000D2001460A480068FFF71EF800F0DEFE03
:1067900001E000E070BD00BF0448407C10B900F08B
:1067A000F7FE01E000F0F4F900BFF3E7148B0020DE
:1067B00058800020F0B5DDE9054500BF4FF0A04747
:1067C0003E4641EA420747EA830747EA042747EA89
:1067D000054C06F5E06747F820C0F0BDF0B5DDE9EF
:1067E000054500BF4FF0A0473E4641EA420747EA51
:1067F000830747EA042747EA054C06F5E06747F8B0
:1068000020C0F0BDF0B5DDE9054500BF4FF0A04761
:106810003E4641EA420747EA830747EA042747EA38
:10682000054C06F5E06747F820C0F0BD7CB505468D
:106830000C4600200090234602460146019028465F
:10684000FFF7E0FF7CBD1CB5044600200090034626
:106850000122114601902046FFF7D4FF1CBD10B560
:106860000A4600BF4FF0A043194601F5E06353F814
:10687000203023F4403401F5E06343F8204053F81E
:10688000203043EA024401F5E06343F8204010BDA4
:10689000014600BF4FF0A040024600BFD2F81005ED
:1068A000C84000F00100704700BF4FF0A0410A4609
:1068B000012303FA00F1C2F8081500BF704710B5B4
:1068C00061B900BF00BF4FF0A0421346012404FA93
:1068D00000F2C3F80C2500BF00BF0CE000BF00BFF2
:1068E0004FF0A0421346012404FA00F2C3F8082531
:1068F00000BF00BF00BF10BD38B50B46074C246871
:106900000094014606E05DF82140D4F8105515606A
:10691000121D491CC4188C42F5D838BDDC86020013
:1069200001460148084470470060004038B50446FD
:106930002046FFF7F5FF002101602046FFF7F0FF3A
:106940000068009000BF38BD10B504462046FFF730
:10695000E7FF0068012800D110BD0020FCE700001F
:10696000014908607047000004630040014609B90E
:106970000E2070470248006808600020F9E7000018
:1069800000880200FEB505460C462046FFF7EEFFE4
:1069900006460EB13046FEBD0020009001900290E8
:1069A0008DF8005014208DF802000321ADF804107A
:1069B00069462020226869DF064600200090019089
:1069C00002908DF8000014208DF8010001208DF850
:1069D000020069464020226869DF064600200090D8
:1069E0000190029001208DF800006946226869DF5D
:1069F000064600200090019002904FF4B060009095
:106A00006946A120226869DF0646002000900190B7
:106A100002908DF800006946A020226869DF0646D2
:106A20000020B8E770B504462668204660DF0546BA
:106A3000284670BD2DE9F04192B080461CE0382018
:106A4000039003A904A861DF044604B115E004AD76
:106A50000F49684600F0DDF809E000BF02980646DD
:106A6000376828467168B847684600F0F3F800BFF9
:106A700002980028F1D100BFE1E700BF052C04D047
:106A800000BF2046FDF764F900BF12B0BDE8F081F9
:106A9000F487020010B51148007808B9082010BD2D
:106AA00001200F49087001F019F8112801D10020C8
:106AB000F5E7022001F030F811DF04460CB1204662
:106AC000EDE70020054908700549087001F0DEF87F
:106AD000032001F021F80020E1E700006F80002092
:106AE0007180002038B51648007808B1082038BDFC
:106AF000012014490870002000F0F0FF112801D196
:106B00000020F4E7002001F007F80F48006800902B
:106B10000E49684610DF04460CB12046E7E7012025
:106B2000074908700020074908700949087001F0FA
:106B3000F2F801F0E1F8012000F0EEFF0020D6E7C6
:106B40006F80002071800020D0870200F93C020095
:106B5000708000203EB50A49684600F05AF809E006
:106B6000684600F053F8044625686068A847684600
:106B700000F070F8684600F049F80028F0D13EBDFA
:106B8000C487020001480078704700006F80002031
:106B900010B50748007808B9082010BD05480078EE
:106BA00010B1FFF777FFF8E7FFF79CFFF5E700006C
:106BB000718000206F8000202DE9FF41074618E01A
:106BC00003A848DF044604B114E00F49684600F00A
:106BD00020F809E000BF029805462E68696803980E
:106BE000B047684600F036F800BF02980028F1D19F
:106BF00000BFE5E700BF052C04D000BF2046FDF72D
:106C0000A7F800BFBDE8FF8114880200014688682C
:106C1000704770B504460D462560286860602046C0
:106C200000F001F870BD14E0D0E9002152689142F3
:106C300002D100218160704741680968426852684A
:106C4000914203D0416809688160F4E741680831E6
:106C50004160E9E710B50446A06800B910BD21689D
:106C6000A06889680844A060D4E901104968884296
:106C700005D16068083060602046FFF7D4FF00BF90
:106C8000ECE70146D1F88004C1F880047047024661
:106C9000505808B1012070470020FCE708B50022D9
:106CA00042504258009200BF08BDC0F80815C0F815
:106CB00010257047C0F808137047C0F804137047D8
:106CC0000246D2F80403084008B1012070470020B2
:106CD000FCE7012242507047C0F81425C0F80C159B
:106CE00070470146D1F88004C1F88004704702461D
:106CF000505808B1012070470020FCE708B5002279
:106D000042504258009200BF08BDC0F808154FF429
:106D1000A2631A507047C0F808137047C0F80413F4
:106D20007047014640F23C504058704701224250A3
:106D3000704740F20C53195040F214531A507047E8
:106D4000F8B50C480090002510E00B4901EB051048
:106D50006946FDF771FC044600BF264626B100BF18
:106D60003046FCF7F5FF00BF00BF6D1C142DECD3BF
:106D7000F8BD0000B1450200248100202DE9FF4745
:106D8000054600272C1D04F1040804F114000390AB
:106D9000E07CC008ADF80800B9466A4602A909209F
:106DA000FCF7F8FE06465EB16A4602A90820FCF729
:106DB000F1FE06460EB1BDE8FF874FF0010901E084
:106DC0004FF00109B9F1000F0BD00B48FCF73BFB6A
:106DD00038B1BDF8002008480199FCF73BFB00B929
:106DE000012737B10123054A054940468CDF064695
:106DF00000BF00BFDFE70000BC850200CA850200BB
:106E0000C28502002DE9FE4F07460D460020029084
:106E10002888B7F8CA12884201D0BDE8FE8F97F8DB
:106E2000C60200EB8001C1EB801007EB40046888CC
:106E3000002878D105F1060A94F804B09AF8000009
:106E4000019001985844062804DC217901980844EF
:106E5000207101E0062020715E464FF0000931E00C
:106E600006EBC60104F10A0000EB410109EB8902BF
:106E70000AF1020000EB420002680A6042684A60C0
:106E800000890881002106EBC60204F10A0000EB2C
:106E90004200418106EBC60204F10A0000EB420009
:106EA000818106EBC60204F10A0000EB4200C181B9
:106EB00006EBC60204F10A0000EB42000182761CD8
:106EC00009F101092079B042CAD8701E00EBC00157
:106ED00004F10A0000EB4100009038460099FEF7EB
:106EE000C3FD10B12079062802D10120029019E0DB
:106EF000207987F8C50229883846FEF75BF8804676
:106F0000B8F1000F0ED0002087F8C7022A8841464A
:106F10003846FEF733FA032019490870288848805C
:106F20007BE700E001E001200290029830B30020EE
:106F300087F8C5022A8801A93846FEF72BF9804652
:106F4000B8F1000F0DD0002087F8C7022A8841460B
:106F50003846FEF713FA032009490870288848804C
:106F60005BE79DF8040040B12A8801213846FEF70E
:106F7000B3F92988384600F043FA00BF00BF4CE758
:106F8000B48500202DE9F04105460F46B7F804808E
:106F9000A81D00EBC8042879A071F87B012802D055
:106FA000022806D102E02888208003E0688820803B
:106FB00000E000BF00BF2088618888420BDD218887
:106FC00040469EDF064616B90120607103E0112E8F
:106FD00001D101202071A079E179884203DD2946A1
:106FE0004046FEF7A1F8BDE8F081000070B590B012
:106FF00004460E463422311D03A8FCF700FABDF802
:107000000C50BDF81000C1B2A01D00EBC500C1714D
:10701000D4F8A80088B10A4903C9CDE90101ADF847
:107020000650A01D00EBC500C0798DF8080001A92D
:107030002046D4F8A820904700BF10B070BD0000D3
:10704000AC8602002DE9FC4705460E460020009064
:107050000190341D2188A81D00EBC10894F804A0FC
:1070600098F80600504502DA98F8060000E050460D
:107070008146ADF80090ADF8029020880022694664
:1070800090DF0746BDE8FC872DE9F84304460D462E
:107090002888B4F8CA12884201D0BDE8F88394F871
:1070A000C60200EB8001C1EB801004EB4008AF1D6D
:1070B00094F8C50200EBC00108F10A0000EB41069C
:1070C000688800283ED100BF38E000EB4002B91CC0
:1070D00001EB42014988B1F5245F0FD06FF42452CF
:1070E000114491B1012902D007291CD114E000EB11
:1070F0004002B91C31F81210718114E000EB40021B
:10710000B91C31F81210B1810DE000EB4002B91C3E
:1071100031F81210F18106E000EB4002B91C31F8A1
:107120001210318200BF00BF718931B1B18921B124
:10713000F18911B1318A01B103E0401C39888142E3
:10714000C3D800BF0020009094F8C502401C98F8F6
:107150000410884202D1012000901CE094F8C5027E
:10716000401C84F8C5022A8869462046FEF712F8BA
:107170008146B9F1000F0DD0002084F8C7022A889B
:1071800049462046FEF7FAF803200A490870288885
:10719000488082E700BF9DF8000040B12A880121A5
:1071A0002046FEF799F82988204600F029F900BF0B
:1071B00073E70000B48500200A88B0F8CA329A420A
:1071C00008D1002280F8C72280F8C8224FF6FF724B
:1071D000A0F8CA22704770B504460D46AA88A11DC2
:1071E00001EBC200FEF7B0FC70BD00002DE9FC47CA
:1071F00005460E46B788B6F80690A81D00EBC704F2
:10720000B9F1170F01DA172000E0484681462088BF
:10721000484501DD484600E020886080002020715C
:1072200021883846ADDF8046607908B1BDE8FC872B
:10723000D5F8A80070B1084903C9CDE90001ADF83F
:1072400002706088ADF8040069462846D5F8A82089
:10725000904700BF00BFE9E7A48602002DE9FC418A
:1072600005460E46B788B6F80A80A81D00EBC7048D
:107270002088404501DD404600E02088608060882D
:10728000172801DA172000E060886080D5F8A80090
:1072900080B1607970B10A4903C9CDE90001ADF848
:1072A00002706088ADF8040069462846D5F8A82029
:1072B000904700BF002060712071BDE8FC81000094
:1072C0009C86020030B585B004460D46A08898B172
:1072D0006889A18888420FD1E06868B101208DF8E3
:1072E000000005F110000290A87B8DF80C006946A3
:1072F0002046E268904700BF05B030BD0146074810
:10730000C068401C054AD0601046C068082803D9F0
:107310000020D060012070470020FCE7148B002083
:1073200001460020154AD060087910B1012821D10A
:1073300016E0D1E90530181AB0F5805F03D2D1E923
:107340000530181A01E04FF480500246886983180E
:107350008B61D1E90503834201D1012070470AE026
:107360000869401C0861D1E90420824201D1012052
:10737000F4E700E000BF00BF0020EFE7148B00201F
:107380002DE9F04105460C4695F8C60200EB800158
:10739000C1EB801005EB40062088B5F8CA12884280
:1073A00001D0BDE8F0816088E0B904F10608D8F8A2
:1073B00002003060D8F80600C6F80600218828468A
:1073C000FDF7F8FD074667B1002085F8C70222885F
:1073D00039462846FDF7D2FF032008490870208867
:1073E000488008E0228800212846FDF775FF2188A3
:1073F000284600F005F800BFD3E70000B485002060
:107400002DE9F04104460D4694F8C902401C84F869
:10741000C90294F8C9021E49096888422ED2002088
:1074200084F8C50294F8C602401C84F8C60294F899
:10743000C60200EB8001C1EB801004EB400694F81B
:10744000C602144901EB80000068306000203071F2
:1074500032460121284694DF074677B1002084F8A0
:10746000C7022A4639462046FDF788FF03200A490D
:10747000087008464580BDE8F08107E0002084F8E8
:10748000C7020320044908700846458000BFF2E7A0
:10749000288000209C850020B485002010B50024A1
:1074A00007E0084A02EBC41002EBC412D16F884710
:1074B000641C054800688442F3D300200349086037
:1074C00010BD0000B485002028800020248000200A
:1074D000014605484056012202EBE07008B1012048
:1074E00070470020FCE70000F888002001460448AF
:1074F0004056082801DB012070470020FCE700000F
:10750000F8880020014606484056002805DB04485C
:107510004056082801DA012070470020FCE70000EF
:10752000F8880020FF2201490A547047F88800209B
:1075300070B53EDF044600BF254625B100BF284692
:10754000FCF706FC00BF00BF70BD000010B503498A
:1075500003480068FEF7F6FB10BD00005C800020C9
:107560003887020010B5074907480068FEF7F8FBA6
:10757000064908600846006808B1012010BD0020D7
:10758000FCE700005C800020388702005880002063
:1075900010B52048007A30B9FFF7E4FF18B9002091
:1075A0001C49486010BD02201A4908721A48006838
:1075B000007910B101280CD105E01748006800F0EF
:1075C000D1FF044607E014480068FDF79BFF04461E
:1075D00001E0032400BF00BF14B1112C0CD107E05F
:1075E0000C48007C18B900210220FFF7A5F80DE037
:1075F00001200849087209E0032107480068FEF7E6
:10760000E3F8002003490872486000BF00BF00BFD4
:10761000C8E70000148B0020588000207CB5094C7E
:1076200001256A4629462046FBF758FE064600BF5C
:107630000196019820B9201F407C08B9FFF7A8FFE8
:107640007CBD0000188B00202DE9F04107460E4656
:1076500014461D462A4631462046FBF7D0FE002040
:10766000BDE8F08170B504460F49496CC84300F08D
:10767000ABFA05464FF6FF70854213D00A48001D4D
:1076800020F815400123224600F1440100F0E8FAF9
:107690000123224604494431A1F1400000F0E0FA00
:1076A000012070BD0020FCE7E484002038B50446CA
:1076B000002023461D2203490090A1F1400000F064
:1076C00045FA38BD2885002010B5A2B00E48406CA0
:1076D0000D49896C20EA01020B49091D684600F03A
:1076E0008EFA4422694611A8FBF789FE002405E0C2
:1076F00012A931F81400FFF7D9FF641C1198A042B9
:10770000F6D822B010BD0000E484002010B5044675
:10771000002322460249A1F1440000F0A1FA10BD65
:107720002C8500200246002110E00B4800EB810070
:1077300080789378984208D1074830F82100138860
:10774000984202D1054800687047491C0448006807
:107750008142EAD30020F7E79C85002020800020AA
:107760002880002070B504460D462046FFF7DAFF5A
:1077700008B1002070BD0A48006806280DD20948EB
:107780000749096800EB810021680160044800682E
:10779000401C034908600020ECE70420EAE70000F1
:1077A000288000209C850020024608467047000083
:1077B0000149086070470000401501400148006819
:1077C000704700000415014010B5044603480460EA
:1077D00007211120FBF7DAFF10BD0000081501405A
:1077E00010B54FF480300A4908600A49C1F8040313
:1077F0001120FBF7A7FF1120FBF7B0FF012005497F
:1078000008602F20FEF76AFB01200349087010BDB5
:1078100044130140001001405680002010B5112093
:10782000012181400E4A430942F8231000BF4FF462
:1078300080300C4908600C49C1F8080301204860F9
:107840002F20FEF74BFB01200749886000200749E5
:1078500008602F20FEF742FB00200549087010BD8C
:1078600080E100E048130140001001404880002002
:107870005680002070B505460C46E07D40B94FF4B7
:1078800084712846FFF70AFA00BFD5F8180570BDC5
:107890004FF484712846FFF701FA00BFD5F81805A8
:1078A000C0B2627EE1688854607E401C607600BF92
:1078B000EDE77FB504460D46164601208DF8000021
:1078C0008DF8085001966846D4E9001290477FBDB4
:1078D00010B504464FF492712068FFF7DFF94FF4BA
:1078E00084712068FFF7DAF900212068FFF7F1F9C9
:1078F00010BD000070B58BDF0C488ADF044600BF66
:10790000254625B100BF2846FCF722FA00BF00BF7C
:107910000120FDF7E5F8044600BF254625B100BF6C
:107920002846FCF715FA00BF00BF70BDC2850200F3
:1079300070B504462046FCF7FDF810B942F201008C
:1079400070BD2046002806DA184900F00F02121F09
:10795000895C490902E01649095C49090D46284637
:10796000FCF70AF910B942F20200E9E71148806811
:1079700068B160090F4951F8200004F01F0201218D
:107980009140084361090B4A42F821000CE000BF16
:1079900004F01F01012088406109890001F1E02104
:1079A000C1F8000100BF00BF0020C9E718ED00E0EA
:1079B00000E400E06C8A002070B504460D462046C5
:1079C000FCF7B8F810B942F2010070BD2846FCF788
:1079D000D3F810B942F20200F7E720462946002802
:1079E00007DA4A07160E064A00F00F031B1FD6548B
:1079F00003E04A07130E034A135400BF0020E4E7D4
:107A000018ED00E000E400E070B50446FCF7AEF8C5
:107A1000054614488068D8B9012012498860124888
:107A20000068124908400F49086010484FF0E021F3
:107A3000C1F880010C488038D0F8840009494860BA
:107A40004FF0FF310848001D01600020207001E068
:107A5000012020701DB900BF62B600BF00BF00202A
:107A600070BD00006C8A002080E100E0FC06FFBDD4
:107A700038B504460D4624B1012C0BD0032C26D179
:107A80001EE0002001218140124A430942F82310E0
:107A900000BF1DE0002000906846FCF7E5FA0E48A4
:107AA000007808B9FEF768FA0B48C068401C0A491C
:107AB000C860012088709DF80000FCF7DBFA07E041
:107AC00007210020FEF7A4FAFEF78AFA00E000BFC3
:107AD00000BF38BD80E100E0B4880020FEB5054657
:107AE0000C496846FFF795F80DE06846FFF78EF8F9
:107AF0000446266828466168B04708B91120FEBDD3
:107B00006846FFF7A7F86846FFF780F80028ECD131
:107B100000BFF4E78C870200FEB505460A496846B7
:107B2000FFF777F80AE06846FFF770F80446266822
:107B300028466168B0476846FFF78CF86846FFF74B
:107B400065F80028EFD1FEBDA88702002DE9F043BB
:107B5000044615461E46DDF81CC07CB371B36DB3F8
:107B600000202DE034F81020B24228D1002221E07C
:107B7000BCF1000F0ED001EB820387B24FF0010978
:107B800009FA07F9D3F8008048EA0908C3F8008029
:107B900000BF0EE001EB820387B24FF0010909FA42
:107BA00007F9D3F8008028EA0908C3F8008000BF6D
:107BB00000BF521CAA42DBD3BDE8F08302E0401CA8
:107BC0002028CFD300BFF7E770B50546002408E0B2
:107BD0002146284600F00AF808B1204670BD601C16
:107BE00084B2202CF4DB4FF6FF70F7E70246012049
:107BF0008840104008B1012070470020FCE7F0B534
:107C000091B007460D461646002000908DB1002425
:107C10000DE0A1B23046FFF7E9FF38B135F8141096
:107C2000009A501C009001A820F81210641C202C0F
:107C3000EFD3442269463846FBF7E1FB11B0F0BDB3
:107C400070B506460025002406E0A1B23046FFF7D5
:107C5000CDFF00B16D1C641C202CF6D3284670BDEE
:107C6000F8B506460F4614461D46234601223946FE
:107C700030460095FFF76AFFF8BD70B504460D4623
:107C800014B90020FDF7C6F970BD000070B51624C8
:107C90002046FBF74FFF10B942F201001CE01448E8
:107CA000806868B16009124951F8200004F01F0291
:107CB00001219140884361090D4A42F821000AE000
:107CC00000BF04F01F01012088400A49620941F801
:107CD000220000BF00BF0020054600BF2C4624B193
:107CE00000BF2046FCF734F800BF00BF70BD0000A5
:107CF0006C8A002080E100E070B51620FFF718FEC6
:107D0000044600BF254625B100BF2846FCF720F8F1
:107D100000BF00BF70BD70B507211620FFF74CFEF5
:107D2000044600BF254625B100BF2846FCF710F8E1
:107D300000BF00BF07211520FFF73EFE044600BF2D
:107D4000254625B100BF2846FCF702F800BF00BF5A
:107D500070BD0246501A20F07F40704710B50446AF
:107D6000D4E90510884710BD70B5FCF74FF80446FC
:107D700000BF254625B100BF2846FBF7E9FF00BF3D
:107D800000BF70BD2DE9FC410020019000260E4887
:107D900004680E4807686846FDF756FB05462DB196
:107DA00001AA21460098FDF741FD01260198FDF743
:107DB000D5FE00B1012616B13846FDF743F9002083
:107DC00003490870BDE8FC81488000204480002001
:107DD0005780002010B51420FBF7CCFC10BD00002C
:107DE00010B51849096811B91649086028E0154A04
:107DF00001681268126891420DD812490968096831
:107E00000268891A0F4A126811600E490968C16137
:107E10000C49086014E002680A4C2368216803E0FA
:107E20000C68121B0B46C96911B10C689442F7D358
:107E300011B10C68A41A0C600260C161D86100BF66
:107E400010BD0000448000202DE9F04106461C488A
:107E5000D0F8008005682C4604E0B44200D103E06D
:107E60002546E469002CF8D100BF14B90020BDE814
:107E7000F081A54213D112480068C069104908601A
:107E80000846006858B901200E49886000200E4954
:107E9000086001200D4908702F20FEF71FF82768A1
:107EA000E069E861EC6914B1206838442060044856
:107EB0000068804501D00120D9E70020D7E7000005
:107EC000448000200010014048800020578000209E
:107ED0002DE9FC4705460E46174698464FF0000927
:107EE000002000906846FCF7BFF801A800F0E8FA0F
:107EF000044614B94FF004090DE0012020706560BC
:107F0000FFF75CFCA060E6602761C4F814809DF870
:107F1000040000F0F3FA9DF80000FCF7ABF8B9F1AB
:107F2000000F01D1FFF756FF4846BDE8FC872DE959
:107F3000FC4105460E460027002000906846FCF7ED
:107F400093F801A800F0BCFA04460CB9042705E038
:107F5000267065609DF8040000F0D0FA9DF80000DE
:107F6000FCF788F80FB9FFF735FF3846BDE8FC810C
:107F70002DE9F0411F480068002838D00027FFF79E
:107F80001DFC80461C4801684046FFF7E2FE06469D
:107F90001848056810E02868B04200D90EE028684B
:107FA000361A286807442C46ED69207C20B1002051
:107FB00020742046FFF7D2FE002DECD100BF0F4801
:107FC00000780F490978884209D10D480078401C93
:107FD000C0B20B490870022801D10020087009487E
:107FE0000749097840F82170FFF7F4FE00BFBDE8AB
:107FF000F081000044800020488000205480002050
:10800000558000204C80002010B51120FBF7B2FBFA
:1080100010BD70B505460C464FF48E712846FEF72C
:108020003DFEA18AA068465CA08A401CA082304622
:10803000C5F81C0500BF70BD7FB504460D46002085
:108040008DF800008DF80850A06801900020A07500
:108050006846D4E9001290477FBD00002DE9F04149
:108060000546287820B1012845D0022849D13CE0B6
:108070002649274A12888818FBF738FF24480088C9
:10808000401C2349088008460088401E1F49085CA0
:108090000A2805D01E4800881E490988884223DB2B
:1080A00000261AE000BF1C4901EB061018490A8897
:1080B0001649FCF771FB0446082C0AD0112C08D095
:1080C00000BF274627B100BF3846FBF741FE00BF7F
:1080D00000BF112CE7D0701CC6B2FCF76DF8B0429F
:1080E000E0D800200A4908800CE000BF6868FBF770
:1080F0002FFE00BF06E000BF6868FBF729FE00BF47
:1081000000E000BF00BFBDE8F081000064820020F5
:10811000F67F0020F47F0020248100207CB50446F7
:108120000E46207800283FD0012802D002284ED1E8
:108130002BE0606801782748FBF739FE054645B11A
:1081400001208DF800000195684623490968884799
:108150000AE02048FDF7A2FB30B100208DF80000B6
:1081600068461D49096888471A48FDF797FB194971
:108170008988884205D8012218491948FEF7A6F8CF
:1081800002E001201749087022E002208DF800006B
:10819000E0680190012211491148FEF797F86846FE
:1081A0000D490968884713E00F491048FBF7DEFDC9
:1081B00028B901220C490A48FEF7D6F906E0032047
:1081C0008DF80000684604490968884700E000BF50
:1081D00000BF7CBD288B0020688000206D800020BF
:1081E000608000206E8000206C800020388B002092
:1081F00030B58BB01822114905A8FBF700F900BF74
:108200000F4801904FF4807002900E4803904FF495
:108210008070049007230C4A01A905A8FBF790FE83
:10822000044600BF00BF254625B100BF2846FBF726
:108230008FFD00BF00BF0BB030BD0000D485020031
:1082400078820020788300205D8002002DE9FF41C4
:1082500005460C464FF400712846FEF731FD48B341
:108260004FF492712846FEF712FD18B34FF4927145
:108270002846FEF713FD4FF401712846FEF71AFD5C
:10828000A07E18B904212846FEF723FD02208DF8B0
:1082900000002846FEF7F5FC0390E17D8DF80810FC
:1082A000E06801900020E07520766846D4E900126D
:1082B000904736E004212846FEF702FD002830D022
:1082C0004FF484712846FEF7E2FC50B3214628465D
:1082D000FFF7D0FAE07D617E884222D1207E70B126
:1082E000E668677E207EE0752069E06000202076E9
:1082F0006076324639462046FFF7DBFA11E0A07E71
:1083000018B904212846FEF7E4FC4FF40171284611
:10831000FEF7D0FC0020E075617EE2682046FFF7A2
:10832000C8FA4FF48E712846FEF7B1FC98B1A08AC6
:10833000A17D884204DA21462846FFF76AFE0AE05A
:108340004FF48E712846FEF7A9FCA07D18B1A17DDF
:108350002046FFF771FE4FF4A2712846FEF797FC06
:1083600098B14FF4A2712846FEF798FCA07E18B190
:1083700000212846FEF7ADFCE07D30B10020E0751D
:10838000617EE2682046FFF794FABDE8FF812DE99F
:10839000FF4105460C464FF492712846FEF7A7FCB4
:1083A000D8B14FF492712846FEF7A8FC02208DF850
:1083B00000002846FEF795FC03902846FEF7B1FC26
:1083C000C1B28DF80810E06801900020E0752076B9
:1083D0006846D4E9001290472FE04FF48871284690
:1083E000FEF785FC48B34FF488712846FEF786FCFB
:1083F0002846FEF796FCC6B2E07DB0421CD1207E36
:1084000098B1E7682020D5F800128143C5F8001222
:1084100000BF207EE0752069E060002020763A46AB
:1084200031462046FFF745FA06E00020E075314668
:108430002046E268FFF73DFA00BF4FF4A2712846DC
:10844000FEF755FC88B14FF4A2712846FEF756FCA2
:10845000E07D50B10020E0752846FEF762FCC6B210
:1084600031462046E268FFF724FA4FF4907128461F
:10847000FEF73DFC78B14FF490712846FEF73EFCC4
:10848000A07D40B100BF40F24C504059C6B23146C9
:108490002046FFF7D1FDBDE8FF81000070B504461E
:1084A0000D4614210448FAF7C3FF04480068FDF79D
:1084B0001CFC002070BD0000148B002038870200D7
:1084C00010B502460C484078401CC1B20A4880787A
:1084D000884200D1002108480078884201D100205C
:1084E00010BD11700448407800EB40040248001DA4
:1084F00000EBC4031846F3E7608900200149487087
:10850000704700006089002002460020704700008C
:108510002DE9F84305460E4617469846DDF82090AB
:1085200069460F480068FDF7FFFB044614B90420B4
:10853000BDE8F8831C212046FAF77AFF002020715D
:108540002560C4F808902661E760C4F81480694685
:1085500003480068FDF712FCFFF760F80020E7E72A
:10856000388702002DE9F0410446D4E90510081AC5
:10857000B0F5805F03D2D4E90510081A01E04FF48A
:10858000805005460C484068B5FBF0F0012804D93E
:1085900009484068B5FBF0F000E00120054621697C
:1085A000A0690E18E168A0690F182A4639463046BE
:1085B00029DFBDE8F08100002C8702005069675F69
:1085C00054000000A0005000000006001800000049
:1085D00090010000080000000600000005000000F7
:1085E000070000000000000000E0D7011112131482
:1085F0000D0E0F107884002098840020C484002081
:108600000D000300C14902000E000300C149020031
:108610000F000300C149020010000300C14902001D
:108620000100000000000000000000000000000049
:10863000000000000000000000000000000000003A
:10864000000000000000000000000000000000002A
:10865000000000000000000000000000000000001A
:10866000000000000000000000000000000000000A
:1086700000000000000000000000000000000000FA
:1086800000000000000000000000000000000000EA
:10869000000000000000000000000000770A000059
:1086A00000000000770A0000000000007ADA0000F5
:1086B000000000009ECADC240EE5A9E093F3A3B5F8
:1086C0000000406E010100000000020000000000F8
:1086D0000201000000000000000000000000005047
:1086E0006E72665F6472765F6770696F74655F69EA
:1086F0006E6974006E72665F6472765F6770696F30
:1087000074655F6F75745F696E6974006E72665F21
:108710006472765F6770696F74655F696E5F696EBA
:108720006974000040890020030000000010000070
:108730000400000001000000048B002079590200B1
:108740009D8402004976020011850200AD540200AA
:10875000A977020009850200555A0200FFFFFFFFBA
:10876000FFFFFFFFFFFFFFFFFFFFFFFF0000000015
:10877000000000000000D601070100000889020087
:108780001089020000000000000000007C87020049
:108790008C87020008000000308902004089020036
:1087A000000000000000000098870200A887020077
:1087B000080000002089020030890200000000004B
:1087C00000000000B4870200C48702000800000017
:1087D0000100000740880200488802004888020023
:1087E000608802006088020000890200008902009F
:1087F00008890200D4870200F48702000800000004
:10880000287D00201089020020890200000000005D
:108810000000000004880200148802000800000024
:1088200040890200287D002050030000D03402005F
:108830005C89020078800020D02A0000243B0200DE
:108840001145020000000000E55D02007880002074
:108850003D420200287D00209944020000000000F3
:108860009D460200248100209D46020034810020A4
:108870009D460200448100209D4602005481002054
:108880009D460200648100209D4602007481002004
:108890009D460200848100209D46020094810020B4
:1088A0009D460200A48100209D460200B481002064
:1088B0009D460200C48100209D460200D481002014
:1088C0009D460200E48100209D460200F4810020C4
:1088D0009D460200048200209D4602001482002072
:1088E0009D460200248200209D4602003482002022
:1088F0009D460200448200209D46020054820020D2
:108900001943020000000000F166020000000000B0
:108910007B7C0200000000003967020000000000BC
:10892000356A020000000000B96B02000000000080
:10893000717A0200000000000D67020000000000D4
:1089400001FF01FF01CF44FFFF1408630D00030086
:0C8950007D4E0204122000401490D00361
:0400000500023201C2
:00000001FF
